{
  "contractName": "Rouleth",
  "abi": [
    {
      "constant": true,
      "inputs": [],
      "name": "owner",
      "outputs": [
        {
          "name": "",
          "type": "address"
        }
      ],
      "payable": false,
      "stateMutability": "view",
      "type": "function"
    },
    {
      "constant": false,
      "inputs": [
        {
          "name": "newOwner",
          "type": "address"
        }
      ],
      "name": "transferOwnership",
      "outputs": [],
      "payable": false,
      "stateMutability": "nonpayable",
      "type": "function"
    },
    {
      "anonymous": false,
      "inputs": [
        {
          "indexed": false,
          "name": "player",
          "type": "address"
        }
      ],
      "name": "NewPlayer",
      "type": "event"
    },
    {
      "anonymous": false,
      "inputs": [
        {
          "indexed": true,
          "name": "previousOwner",
          "type": "address"
        },
        {
          "indexed": true,
          "name": "newOwner",
          "type": "address"
        }
      ],
      "name": "OwnershipTransferred",
      "type": "event"
    },
    {
      "constant": false,
      "inputs": [],
      "name": "enterGame",
      "outputs": [],
      "payable": true,
      "stateMutability": "payable",
      "type": "function"
    },
    {
      "constant": false,
      "inputs": [],
      "name": "withdraw",
      "outputs": [],
      "payable": true,
      "stateMutability": "payable",
      "type": "function"
    },
    {
      "constant": true,
      "inputs": [],
      "name": "getCurrentPlayers",
      "outputs": [
        {
          "name": "",
          "type": "address[2]"
        }
      ],
      "payable": false,
      "stateMutability": "view",
      "type": "function"
    }
  ],
  "bytecode": "0x60606040526000600155600280556000600560006101000a81548160ff021916908360ff160217905550662386f26fc10000600655605f600755336000806101000a81548173ffffffffffffffffffffffffffffffffffffffff021916908373ffffffffffffffffffffffffffffffffffffffff160217905550610785806100886000396000f30060606040526004361061006d576000357c0100000000000000000000000000000000000000000000000000000000900463ffffffff16806302cac05c14610072578063218bd577146100c35780633ccfd60b146100cd5780638da5cb5b146100d7578063f2fde38b1461012c575b600080fd5b341561007d57600080fd5b610085610165565b6040518082600260200280838360005b838110156100b0578082015181840152602081019050610095565b5050505090500191505060405180910390f35b6100cb6101e6565b005b6100d561031c565b005b34156100e257600080fd5b6100ea610412565b604051808273ffffffffffffffffffffffffffffffffffffffff1673ffffffffffffffffffffffffffffffffffffffff16815260200191505060405180910390f35b341561013757600080fd5b610163600480803573ffffffffffffffffffffffffffffffffffffffff16906020019091905050610437565b005b61016d61071c565b60036002806020026040519081016040528092919082600280156101dc576020028201915b8160009054906101000a900473ffffffffffffffffffffffffffffffffffffffff1673ffffffffffffffffffffffffffffffffffffffff1681526020019060010190808311610192575b5050505050905090565b60065434101515156101f757600080fd5b336003600560009054906101000a900460ff1660ff1660028110151561021957fe5b0160006101000a81548173ffffffffffffffffffffffffffffffffffffffff021916908373ffffffffffffffffffffffffffffffffffffffff1602179055506005600081819054906101000a900460ff168092919060010191906101000a81548160ff021916908360ff160217905550507f52e92d4898337244a39bd42674ac561eadfd3959e947deec1c0ab82dd58b5a7533604051808273ffffffffffffffffffffffffffffffffffffffff1673ffffffffffffffffffffffffffffffffffffffff16815260200191505060405180910390a1600254600560009054906101000a900460ff1660ff16141561031a5761031161058c565b610319610643565b5b565b6000809054906101000a900473ffffffffffffffffffffffffffffffffffffffff1673ffffffffffffffffffffffffffffffffffffffff163373ffffffffffffffffffffffffffffffffffffffff1614151561037757600080fd5b6000600560009054906101000a900460ff1660ff1614151561039857600080fd5b6000809054906101000a900473ffffffffffffffffffffffffffffffffffffffff1673ffffffffffffffffffffffffffffffffffffffff166108fc3073ffffffffffffffffffffffffffffffffffffffff16319081150290604051600060405180830381858888f19350505050151561041057600080fd5b565b6000809054906101000a900473ffffffffffffffffffffffffffffffffffffffff1681565b6000809054906101000a900473ffffffffffffffffffffffffffffffffffffffff1673ffffffffffffffffffffffffffffffffffffffff163373ffffffffffffffffffffffffffffffffffffffff1614151561049257600080fd5b600073ffffffffffffffffffffffffffffffffffffffff168173ffffffffffffffffffffffffffffffffffffffff16141515156104ce57600080fd5b8073ffffffffffffffffffffffffffffffffffffffff166000809054906101000a900473ffffffffffffffffffffffffffffffffffffffff1673ffffffffffffffffffffffffffffffffffffffff167f8be0079c531659141344cd1fd0a4f28419497f9722a3daafe3b4186f6b6457e060405160405180910390a3806000806101000a81548173ffffffffffffffffffffffffffffffffffffffff021916908373ffffffffffffffffffffffffffffffffffffffff16021790555050565b600080600061059c600254610661565b92506105a66106ee565b9150600090505b60025481101561063e578281141515610631576003816002811015156105cf57fe5b0160009054906101000a900473ffffffffffffffffffffffffffffffffffffffff1673ffffffffffffffffffffffffffffffffffffffff166108fc839081150290604051600060405180830381858888f19350505050151561063057600080fd5b5b80806001019150506105ad565b505050565b6000600560006101000a81548160ff021916908360ff160217905550565b6000600160008154809291906001019190505550814233600154604051808481526020018373ffffffffffffffffffffffffffffffffffffffff1673ffffffffffffffffffffffffffffffffffffffff166c0100000000000000000000000002815260140182815260200193505050506040518091039020600190048115156106e657fe5b069050919050565b60006001600254036064600754600254600654020281151561070c57fe5b0481151561071657fe5b04905090565b60408051908101604052806002905b600073ffffffffffffffffffffffffffffffffffffffff1681526020019060019003908161072b57905050905600a165627a7a723058201a3616a0f848550237151b10f73375cbfa61be1de41a897facb62d07c4e41fc60029",
  "source": "pragma solidity ^0.4.19;\n\nimport \"./Random.sol\";\n\n/**\n * @title Rouleth\n * @dev The Rouleth contract allows 6 players to play Russian Roulette.\n */\ncontract Rouleth is Random {\n    uint maxPlayers = 2;\n    address[2] players;\n\n    uint8 nPlayers = 0;\n    uint entryFee = 0.01 ether;\n    uint afterHouseFee = 95;\n\n    event NewPlayer(address player);\n\n    function enterGame() external payable {\n        require(msg.value >= entryFee);\n        players[nPlayers] = msg.sender;\n        nPlayers++;\n        NewPlayer(msg.sender);\n        if (nPlayers == maxPlayers) {\n            _spinRevolver();\n            _resetRevolver();\n        }\n    }\n\n    function _spinRevolver() private {\n        uint loser = _getRandom(maxPlayers);\n        uint prize = _getPrize();\n        for (uint i = 0; i < maxPlayers; i++) {\n            if (i != loser) {\n                players[i].transfer(prize);\n            }\n        }\n    }\n\n    function _getPrize() private view returns (uint) {\n        return (entryFee * maxPlayers * afterHouseFee/100) / (maxPlayers - 1);\n    }\n\n    function _resetRevolver() private {\n        nPlayers = 0;\n    }\n\n    function withdraw() external payable onlyOwner {\n        require(nPlayers == 0);\n        owner.transfer(this.balance);\n    }\n\n    function getCurrentPlayers() external view returns(address[2]) {\n        return players;\n    }\n}",
  "sourcePath": "/home/pere/Projects/rouleth/rouleth-core/contracts/Rouleth.sol",
  "compiler": {
    "name": "solc",
    "version": "0.4.19+commit.c4cbbb05.Emscripten.clang"
  },
  "schemaVersion": "2.0.0",
  "updatedAt": "2018-03-05T20:00:32.542Z"
}